{
  "contractName": "FarmerProduct",
  "abi": [
    {
      "inputs": [],
      "payable": false,
      "stateMutability": "nonpayable",
      "type": "constructor"
    },
    {
      "constant": true,
      "inputs": [
        {
          "internalType": "uint256",
          "name": "",
          "type": "uint256"
        }
      ],
      "name": "all_Farmers_crops",
      "outputs": [
        {
          "internalType": "address",
          "name": "fid",
          "type": "address"
        },
        {
          "internalType": "string",
          "name": "farmer_name",
          "type": "string"
        },
        {
          "internalType": "string",
          "name": "location",
          "type": "string"
        },
        {
          "internalType": "string",
          "name": "crop_type",
          "type": "string"
        },
        {
          "internalType": "uint256",
          "name": "phone_number",
          "type": "uint256"
        },
        {
          "internalType": "uint256",
          "name": "quantity",
          "type": "uint256"
        },
        {
          "internalType": "uint256",
          "name": "unit_price",
          "type": "uint256"
        },
        {
          "internalType": "uint256",
          "name": "total_price",
          "type": "uint256"
        }
      ],
      "payable": false,
      "stateMutability": "view",
      "type": "function"
    },
    {
      "constant": true,
      "inputs": [],
      "name": "number_crops",
      "outputs": [
        {
          "internalType": "uint256",
          "name": "",
          "type": "uint256"
        }
      ],
      "payable": false,
      "stateMutability": "view",
      "type": "function"
    },
    {
      "constant": true,
      "inputs": [],
      "name": "Get_list",
      "outputs": [
        {
          "components": [
            {
              "internalType": "address",
              "name": "fid",
              "type": "address"
            },
            {
              "internalType": "string",
              "name": "farmer_name",
              "type": "string"
            },
            {
              "internalType": "string",
              "name": "location",
              "type": "string"
            },
            {
              "internalType": "string",
              "name": "crop_type",
              "type": "string"
            },
            {
              "internalType": "uint256",
              "name": "phone_number",
              "type": "uint256"
            },
            {
              "internalType": "uint256",
              "name": "quantity",
              "type": "uint256"
            },
            {
              "internalType": "uint256",
              "name": "unit_price",
              "type": "uint256"
            },
            {
              "internalType": "uint256",
              "name": "total_price",
              "type": "uint256"
            }
          ],
          "internalType": "struct FarmerProduct.farmer_crop[]",
          "name": "",
          "type": "tuple[]"
        }
      ],
      "payable": false,
      "stateMutability": "view",
      "type": "function"
    },
    {
      "constant": true,
      "inputs": [
        {
          "internalType": "address",
          "name": "farmer_address",
          "type": "address"
        }
      ],
      "name": "farmer_exist",
      "outputs": [
        {
          "internalType": "bool",
          "name": "",
          "type": "bool"
        }
      ],
      "payable": false,
      "stateMutability": "view",
      "type": "function"
    },
    {
      "constant": true,
      "inputs": [],
      "name": "Getnumber_crops",
      "outputs": [
        {
          "internalType": "uint256",
          "name": "",
          "type": "uint256"
        }
      ],
      "payable": false,
      "stateMutability": "view",
      "type": "function"
    },
    {
      "constant": true,
      "inputs": [
        {
          "internalType": "address",
          "name": "farmer_address",
          "type": "address"
        }
      ],
      "name": "Get_crop_farmer_by_key",
      "outputs": [
        {
          "internalType": "bool",
          "name": "exist",
          "type": "bool"
        },
        {
          "components": [
            {
              "internalType": "address",
              "name": "fid",
              "type": "address"
            },
            {
              "internalType": "string",
              "name": "farmer_name",
              "type": "string"
            },
            {
              "internalType": "string",
              "name": "location",
              "type": "string"
            },
            {
              "internalType": "string",
              "name": "crop_type",
              "type": "string"
            },
            {
              "internalType": "uint256",
              "name": "phone_number",
              "type": "uint256"
            },
            {
              "internalType": "uint256",
              "name": "quantity",
              "type": "uint256"
            },
            {
              "internalType": "uint256",
              "name": "unit_price",
              "type": "uint256"
            },
            {
              "internalType": "uint256",
              "name": "total_price",
              "type": "uint256"
            }
          ],
          "internalType": "struct FarmerProduct.farmer_crop",
          "name": "",
          "type": "tuple"
        }
      ],
      "payable": false,
      "stateMutability": "view",
      "type": "function"
    },
    {
      "constant": false,
      "inputs": [
        {
          "internalType": "address",
          "name": "fid",
          "type": "address"
        },
        {
          "internalType": "string",
          "name": "farmer_name",
          "type": "string"
        },
        {
          "internalType": "string",
          "name": "location",
          "type": "string"
        },
        {
          "internalType": "string",
          "name": "crop_type",
          "type": "string"
        },
        {
          "internalType": "uint256",
          "name": "phone_number",
          "type": "uint256"
        },
        {
          "internalType": "uint256",
          "name": "quantity",
          "type": "uint256"
        },
        {
          "internalType": "uint256",
          "name": "unit_price",
          "type": "uint256"
        }
      ],
      "name": "AddNewCrop",
      "outputs": [],
      "payable": false,
      "stateMutability": "nonpayable",
      "type": "function"
    },
    {
      "constant": false,
      "inputs": [
        {
          "internalType": "address",
          "name": "fid",
          "type": "address"
        },
        {
          "internalType": "address",
          "name": "tester_id",
          "type": "address"
        },
        {
          "internalType": "uint256",
          "name": "grade",
          "type": "uint256"
        },
        {
          "internalType": "string",
          "name": "test_date",
          "type": "string"
        },
        {
          "internalType": "string",
          "name": "exp_date",
          "type": "string"
        }
      ],
      "name": "AddNewLot",
      "outputs": [],
      "payable": false,
      "stateMutability": "nonpayable",
      "type": "function"
    },
    {
      "constant": true,
      "inputs": [],
      "name": "Getnumber_lots",
      "outputs": [
        {
          "internalType": "uint256",
          "name": "",
          "type": "uint256"
        }
      ],
      "payable": false,
      "stateMutability": "view",
      "type": "function"
    },
    {
      "constant": false,
      "inputs": [
        {
          "internalType": "address",
          "name": "suppid",
          "type": "address"
        },
        {
          "internalType": "uint256",
          "name": "lot_id",
          "type": "uint256"
        },
        {
          "internalType": "uint256",
          "name": "selling_price",
          "type": "uint256"
        }
      ],
      "name": "AddNewSupplier",
      "outputs": [],
      "payable": false,
      "stateMutability": "nonpayable",
      "type": "function"
    },
    {
      "constant": true,
      "inputs": [],
      "name": "Getnumber_product",
      "outputs": [
        {
          "internalType": "uint256",
          "name": "",
          "type": "uint256"
        }
      ],
      "payable": false,
      "stateMutability": "view",
      "type": "function"
    },
    {
      "constant": true,
      "inputs": [
        {
          "internalType": "address",
          "name": "_farmerAddress",
          "type": "address"
        }
      ],
      "name": "GetFarmerCropByAddress",
      "outputs": [
        {
          "components": [
            {
              "internalType": "address",
              "name": "fid",
              "type": "address"
            },
            {
              "internalType": "string",
              "name": "farmer_name",
              "type": "string"
            },
            {
              "internalType": "string",
              "name": "location",
              "type": "string"
            },
            {
              "internalType": "string",
              "name": "crop_type",
              "type": "string"
            },
            {
              "internalType": "uint256",
              "name": "phone_number",
              "type": "uint256"
            },
            {
              "internalType": "uint256",
              "name": "quantity",
              "type": "uint256"
            },
            {
              "internalType": "uint256",
              "name": "unit_price",
              "type": "uint256"
            },
            {
              "internalType": "uint256",
              "name": "total_price",
              "type": "uint256"
            }
          ],
          "internalType": "struct FarmerProduct.farmer_crop[]",
          "name": "",
          "type": "tuple[]"
        }
      ],
      "payable": false,
      "stateMutability": "view",
      "type": "function"
    },
    {
      "constant": true,
      "inputs": [
        {
          "internalType": "address",
          "name": "user_address",
          "type": "address"
        }
      ],
      "name": "getBalance",
      "outputs": [
        {
          "internalType": "uint256",
          "name": "",
          "type": "uint256"
        }
      ],
      "payable": false,
      "stateMutability": "view",
      "type": "function"
    },
    {
      "constant": false,
      "inputs": [
        {
          "internalType": "address",
          "name": "receiver",
          "type": "address"
        },
        {
          "internalType": "uint256",
          "name": "amount",
          "type": "uint256"
        },
        {
          "internalType": "address",
          "name": "sender",
          "type": "address"
        }
      ],
      "name": "sendCoin",
      "outputs": [
        {
          "internalType": "bool",
          "name": "sufficient",
          "type": "bool"
        }
      ],
      "payable": false,
      "stateMutability": "nonpayable",
      "type": "function"
    }
  ],
  "bytecode": "0x608060405234801561001057600080fd5b50600060018190555060006003819055506000600581905550612161806100386000396000f3fe608060405234801561001057600080fd5b50600436106100ea5760003560e01c8063a9cf5c691161008c578063d1b4373111610066578063d1b4373114610254578063f8b2cb4f14610284578063fb0d4a1e146102b4578063fb7abed1146102e5576100ea565b8063a9cf5c69146101ea578063b81e3a5014610206578063cea6921e14610236576100ea565b8063245c0ed1116100c8578063245c0ed1146101625780632b314bf8146101805780635ea6c6551461019e57806368a12823146101ba576100ea565b80630b532fb3146100ef5780630d25f57c1461012657806313bca9e414610144575b600080fd5b61010960048036036101049190810190611b90565b610301565b60405161011d989796959493929190611e7b565b60405180910390f35b61012e61053e565b60405161013b9190611f0e565b60405180910390f35b61014c610802565b6040516101599190611f7b565b60405180910390f35b61016a610808565b6040516101779190611f7b565b60405180910390f35b610188610812565b6040516101959190611f7b565b60405180910390f35b6101b860048036036101b39190810190611b41565b61081c565b005b6101d460048036036101cf919081019061193c565b61090e565b6040516101e19190611f0e565b60405180910390f35b61020460048036036101ff9190810190611965565b610c50565b005b610220600480360361021b9190810190611af2565b610ddb565b60405161022d9190611f30565b60405180910390f35b61023e610ed3565b60405161024b9190611f7b565b60405180910390f35b61026e6004803603610269919081019061193c565b610edd565b60405161027b9190611f30565b60405180910390f35b61029e6004803603610299919081019061193c565b610f86565b6040516102ab9190611f7b565b60405180910390f35b6102ce60048036036102c9919081019061193c565b610fcf565b6040516102dc929190611f4b565b60405180910390f35b6102ff60048036036102fa9190810190611a0c565b6115a0565b005b6000818154811061030e57fe5b90600052602060002090600802016000915090508060000160009054906101000a900473ffffffffffffffffffffffffffffffffffffffff1690806001018054600181600116156101000203166002900480601f0160208091040260200160405190810160405280929190818152602001828054600181600116156101000203166002900480156103e05780601f106103b5576101008083540402835291602001916103e0565b820191906000526020600020905b8154815290600101906020018083116103c357829003601f168201915b505050505090806002018054600181600116156101000203166002900480601f01602080910402602001604051908101604052809291908181526020018280546001816001161561010002031660029004801561047e5780601f106104535761010080835404028352916020019161047e565b820191906000526020600020905b81548152906001019060200180831161046157829003601f168201915b505050505090806003018054600181600116156101000203166002900480601f01602080910402602001604051908101604052809291908181526020018280546001816001161561010002031660029004801561051c5780601f106104f15761010080835404028352916020019161051c565b820191906000526020600020905b8154815290600101906020018083116104ff57829003601f168201915b5050505050908060040154908060050154908060060154908060070154905088565b60606000805480602002602001604051908101604052809291908181526020016000905b828210156107f95783829060005260206000209060080201604051806101000160405290816000820160009054906101000a900473ffffffffffffffffffffffffffffffffffffffff1673ffffffffffffffffffffffffffffffffffffffff1673ffffffffffffffffffffffffffffffffffffffff168152602001600182018054600181600116156101000203166002900480601f0160208091040260200160405190810160405280929190818152602001828054600181600116156101000203166002900480156106755780601f1061064a57610100808354040283529160200191610675565b820191906000526020600020905b81548152906001019060200180831161065857829003601f168201915b50505050508152602001600282018054600181600116156101000203166002900480601f0160208091040260200160405190810160405280929190818152602001828054600181600116156101000203166002900480156107175780601f106106ec57610100808354040283529160200191610717565b820191906000526020600020905b8154815290600101906020018083116106fa57829003601f168201915b50505050508152602001600382018054600181600116156101000203166002900480601f0160208091040260200160405190810160405280929190818152602001828054600181600116156101000203166002900480156107b95780601f1061078e576101008083540402835291602001916107b9565b820191906000526020600020905b81548152906001019060200180831161079c57829003601f168201915b5050505050815260200160048201548152602001600582015481526020016006820154815260200160078201548152505081526020019060010190610562565b50505050905090565b60015481565b6000600554905090565b6000600154905090565b61082461171e565b60405180608001604052808573ffffffffffffffffffffffffffffffffffffffff168152602001600554815260200160055481526020018381525090506004819080600181540180825580915050906001820390600052602060002090600402016000909192909190915060008201518160000160006101000a81548173ffffffffffffffffffffffffffffffffffffffff021916908373ffffffffffffffffffffffffffffffffffffffff160217905550602082015181600101556040820151816002015560608201518160030155505050600160056000828254019250508190555050505050565b60608060008090505b600080549050811015610c46578373ffffffffffffffffffffffffffffffffffffffff166000828154811061094857fe5b906000526020600020906008020160000160009054906101000a900473ffffffffffffffffffffffffffffffffffffffff1673ffffffffffffffffffffffffffffffffffffffff161415610c3957600081815481106109a357fe5b9060005260206000209060080201604051806101000160405290816000820160009054906101000a900473ffffffffffffffffffffffffffffffffffffffff1673ffffffffffffffffffffffffffffffffffffffff1673ffffffffffffffffffffffffffffffffffffffff168152602001600182018054600181600116156101000203166002900480601f016020809104026020016040519081016040528092919081815260200182805460018160011615610100020316600290048015610aac5780601f10610a8157610100808354040283529160200191610aac565b820191906000526020600020905b815481529060010190602001808311610a8f57829003601f168201915b50505050508152602001600282018054600181600116156101000203166002900480601f016020809104026020016040519081016040528092919081815260200182805460018160011615610100020316600290048015610b4e5780601f10610b2357610100808354040283529160200191610b4e565b820191906000526020600020905b815481529060010190602001808311610b3157829003601f168201915b50505050508152602001600382018054600181600116156101000203166002900480601f016020809104026020016040519081016040528092919081815260200182805460018160011615610100020316600290048015610bf05780601f10610bc557610100808354040283529160200191610bf0565b820191906000526020600020905b815481529060010190602001808311610bd357829003601f168201915b50505050508152602001600482015481526020016005820154815260200160068201548152602001600782015481525050828281518110610c2d57fe5b60200260200101819052505b8080600101915050610917565b5080915050919050565b610c5861175c565b6040518060c001604052808773ffffffffffffffffffffffffffffffffffffffff1681526020018673ffffffffffffffffffffffffffffffffffffffff16815260200160035481526020018581526020018481526020018381525090506002819080600181540180825580915050906001820390600052602060002090600602016000909192909190915060008201518160000160006101000a81548173ffffffffffffffffffffffffffffffffffffffff021916908373ffffffffffffffffffffffffffffffffffffffff16021790555060208201518160010160006101000a81548173ffffffffffffffffffffffffffffffffffffffff021916908373ffffffffffffffffffffffffffffffffffffffff16021790555060408201518160020155606082015181600301556080820151816004019080519060200190610da19291906117be565b5060a0820151816005019080519060200190610dbe9291906117be565b505050506001600360008282540192505081905550505050505050565b600082600660008473ffffffffffffffffffffffffffffffffffffffff1673ffffffffffffffffffffffffffffffffffffffff168152602001908152602001600020541015610e2d5760009050610ecc565b82600660008473ffffffffffffffffffffffffffffffffffffffff1673ffffffffffffffffffffffffffffffffffffffff1681526020019081526020016000206000828254039250508190555082600660008673ffffffffffffffffffffffffffffffffffffffff1673ffffffffffffffffffffffffffffffffffffffff16815260200190815260200160002060008282540192505081905550600190505b9392505050565b6000600354905090565b600080600090505b600080549050811015610f7b578273ffffffffffffffffffffffffffffffffffffffff1660008281548110610f1657fe5b906000526020600020906008020160000160009054906101000a900473ffffffffffffffffffffffffffffffffffffffff1673ffffffffffffffffffffffffffffffffffffffff161415610f6e576001915050610f81565b8080600101915050610ee5565b50600090505b919050565b6000600660008373ffffffffffffffffffffffffffffffffffffffff1673ffffffffffffffffffffffffffffffffffffffff168152602001908152602001600020549050919050565b6000610fd961183e565b60008090505b600080549050811015611305578373ffffffffffffffffffffffffffffffffffffffff166000828154811061101057fe5b906000526020600020906008020160000160009054906101000a900473ffffffffffffffffffffffffffffffffffffffff1673ffffffffffffffffffffffffffffffffffffffff1614156112f85760016000828154811061106d57fe5b906000526020600020906008020180604051806101000160405290816000820160009054906101000a900473ffffffffffffffffffffffffffffffffffffffff1673ffffffffffffffffffffffffffffffffffffffff1673ffffffffffffffffffffffffffffffffffffffff168152602001600182018054600181600116156101000203166002900480601f0160208091040260200160405190810160405280929190818152602001828054600181600116156101000203166002900480156111775780601f1061114c57610100808354040283529160200191611177565b820191906000526020600020905b81548152906001019060200180831161115a57829003601f168201915b50505050508152602001600282018054600181600116156101000203166002900480601f0160208091040260200160405190810160405280929190818152602001828054600181600116156101000203166002900480156112195780601f106111ee57610100808354040283529160200191611219565b820191906000526020600020905b8154815290600101906020018083116111fc57829003601f168201915b50505050508152602001600382018054600181600116156101000203166002900480601f0160208091040260200160405190810160405280929190818152602001828054600181600116156101000203166002900480156112bb5780601f10611290576101008083540402835291602001916112bb565b820191906000526020600020905b81548152906001019060200180831161129e57829003601f168201915b505050505081526020016004820154815260200160058201548152602001600682015481526020016007820154815250509050925092505061159b565b8080600101915050610fdf565b5060008060008154811061131557fe5b906000526020600020906008020180604051806101000160405290816000820160009054906101000a900473ffffffffffffffffffffffffffffffffffffffff1673ffffffffffffffffffffffffffffffffffffffff1673ffffffffffffffffffffffffffffffffffffffff168152602001600182018054600181600116156101000203166002900480601f01602080910402602001604051908101604052809291908181526020018280546001816001161561010002031660029004801561141f5780601f106113f45761010080835404028352916020019161141f565b820191906000526020600020905b81548152906001019060200180831161140257829003601f168201915b50505050508152602001600282018054600181600116156101000203166002900480601f0160208091040260200160405190810160405280929190818152602001828054600181600116156101000203166002900480156114c15780601f10611496576101008083540402835291602001916114c1565b820191906000526020600020905b8154815290600101906020018083116114a457829003601f168201915b50505050508152602001600382018054600181600116156101000203166002900480601f0160208091040260200160405190810160405280929190818152602001828054600181600116156101000203166002900480156115635780601f1061153857610100808354040283529160200191611563565b820191906000526020600020905b81548152906001019060200180831161154657829003601f168201915b505050505081526020016004820154815260200160058201548152602001600682015481526020016007820154815250509050915091505b915091565b600015156115ad88610edd565b15151415611715576115bd61183e565b6040518061010001604052808973ffffffffffffffffffffffffffffffffffffffff16815260200188815260200187815260200186815260200185815260200184815260200183815260200184840281525090506000819080600181540180825580915050906001820390600052602060002090600802016000909192909190915060008201518160000160006101000a81548173ffffffffffffffffffffffffffffffffffffffff021916908373ffffffffffffffffffffffffffffffffffffffff16021790555060208201518160010190805190602001906116a29291906117be565b5060408201518160020190805190602001906116bf9291906117be565b5060608201518160030190805190602001906116dc9291906117be565b506080820151816004015560a0820151816005015560c0820151816006015560e082015181600701555050506001805401600181905550505b50505050505050565b6040518060800160405280600073ffffffffffffffffffffffffffffffffffffffff1681526020016000815260200160008152602001600081525090565b6040518060c00160405280600073ffffffffffffffffffffffffffffffffffffffff168152602001600073ffffffffffffffffffffffffffffffffffffffff168152602001600081526020016000815260200160608152602001606081525090565b828054600181600116156101000203166002900490600052602060002090601f016020900481019282601f106117ff57805160ff191683800117855561182d565b8280016001018555821561182d579182015b8281111561182c578251825591602001919060010190611811565b5b50905061183a9190611899565b5090565b604051806101000160405280600073ffffffffffffffffffffffffffffffffffffffff168152602001606081526020016060815260200160608152602001600081526020016000815260200160008152602001600081525090565b6118bb91905b808211156118b757600081600090555060010161189f565b5090565b90565b6000813590506118cd816120f0565b92915050565b600082601f8301126118e457600080fd5b81356118f76118f282611fc3565b611f96565b9150808252602083016020830185838301111561191357600080fd5b61191e83828461209d565b50505092915050565b60008135905061193681612107565b92915050565b60006020828403121561194e57600080fd5b600061195c848285016118be565b91505092915050565b600080600080600060a0868803121561197d57600080fd5b600061198b888289016118be565b955050602061199c888289016118be565b94505060406119ad88828901611927565b935050606086013567ffffffffffffffff8111156119ca57600080fd5b6119d6888289016118d3565b925050608086013567ffffffffffffffff8111156119f357600080fd5b6119ff888289016118d3565b9150509295509295909350565b600080600080600080600060e0888a031215611a2757600080fd5b6000611a358a828b016118be565b975050602088013567ffffffffffffffff811115611a5257600080fd5b611a5e8a828b016118d3565b965050604088013567ffffffffffffffff811115611a7b57600080fd5b611a878a828b016118d3565b955050606088013567ffffffffffffffff811115611aa457600080fd5b611ab08a828b016118d3565b9450506080611ac18a828b01611927565b93505060a0611ad28a828b01611927565b92505060c0611ae38a828b01611927565b91505092959891949750929550565b600080600060608486031215611b0757600080fd5b6000611b15868287016118be565b9350506020611b2686828701611927565b9250506040611b37868287016118be565b9150509250925092565b600080600060608486031215611b5657600080fd5b6000611b64868287016118be565b9350506020611b7586828701611927565b9250506040611b8686828701611927565b9150509250925092565b600060208284031215611ba257600080fd5b6000611bb084828501611927565b91505092915050565b6000611bc58383611d9f565b905092915050565b611bd681612055565b82525050565b611be581612055565b82525050565b6000611bf682611fff565b611c008185612022565b935083602082028501611c1285611fef565b8060005b85811015611c4e5784840389528151611c2f8582611bb9565b9450611c3a83612015565b925060208a01995050600181019050611c16565b50829750879550505050505092915050565b611c6981612067565b82525050565b6000611c7a8261200a565b611c848185612033565b9350611c948185602086016120ac565b611c9d816120df565b840191505092915050565b6000611cb38261200a565b611cbd8185612044565b9350611ccd8185602086016120ac565b611cd6816120df565b840191505092915050565b600061010083016000830151611cfa6000860182611bcd565b5060208301518482036020860152611d128282611c6f565b91505060408301518482036040860152611d2c8282611c6f565b91505060608301518482036060860152611d468282611c6f565b9150506080830151611d5b6080860182611e5d565b5060a0830151611d6e60a0860182611e5d565b5060c0830151611d8160c0860182611e5d565b5060e0830151611d9460e0860182611e5d565b508091505092915050565b600061010083016000830151611db86000860182611bcd565b5060208301518482036020860152611dd08282611c6f565b91505060408301518482036040860152611dea8282611c6f565b91505060608301518482036060860152611e048282611c6f565b9150506080830151611e196080860182611e5d565b5060a0830151611e2c60a0860182611e5d565b5060c0830151611e3f60c0860182611e5d565b5060e0830151611e5260e0860182611e5d565b508091505092915050565b611e6681612093565b82525050565b611e7581612093565b82525050565b600061010082019050611e91600083018b611bdc565b8181036020830152611ea3818a611ca8565b90508181036040830152611eb78189611ca8565b90508181036060830152611ecb8188611ca8565b9050611eda6080830187611e6c565b611ee760a0830186611e6c565b611ef460c0830185611e6c565b611f0160e0830184611e6c565b9998505050505050505050565b60006020820190508181036000830152611f288184611beb565b905092915050565b6000602082019050611f456000830184611c60565b92915050565b6000604082019050611f606000830185611c60565b8181036020830152611f728184611ce1565b90509392505050565b6000602082019050611f906000830184611e6c565b92915050565b6000604051905081810181811067ffffffffffffffff82111715611fb957600080fd5b8060405250919050565b600067ffffffffffffffff821115611fda57600080fd5b601f19601f8301169050602081019050919050565b6000819050602082019050919050565b600081519050919050565b600081519050919050565b6000602082019050919050565b600082825260208201905092915050565b600082825260208201905092915050565b600082825260208201905092915050565b600061206082612073565b9050919050565b60008115159050919050565b600073ffffffffffffffffffffffffffffffffffffffff82169050919050565b6000819050919050565b82818337600083830152505050565b60005b838110156120ca5780820151818401526020810190506120af565b838111156120d9576000848401525b50505050565b6000601f19601f8301169050919050565b6120f981612055565b811461210457600080fd5b50565b61211081612093565b811461211b57600080fd5b5056fea365627a7a7231582000eb3c26a8e9aec469d25c54c28e02da627f64612f94d428618be24da81f97126c6578706572696d656e74616cf564736f6c63430005100040",
  "source": "pragma solidity ^0.5.0;\npragma experimental ABIEncoderV2;\n\n//registers all the farmer contracts t track his work\ncontract FarmerProduct {\n\n    //______________________________________________________\n    //farmer crop \n    struct farmer_crop{ // no crop type \n        address fid;\n        string farmer_name;\n        string location;\n        string crop_type;\n        uint phone_number;\n        uint quantity;\n        uint unit_price;\n        uint total_price; // unit_price * quantity  \n    }\n\n    struct lot{\n        address fid ;\n        address tester_id; \n        uint    lot_id  ;\n        uint    grade;\n        string  test_date;\n        string  exp_date  ;      \n    }\n\n    struct supplier{\n        address suppid ; \n        uint lot_id ;\n        uint product_id; \n        uint selling_price;\n    }\n\n    //______________________________________________________\n    //list of all farmers crops\n    farmer_crop[] public all_Farmers_crops ; \n\n    uint public  number_crops ;\n\n    lot[] all_lots ; \n    uint  number_lots ; \n\n    supplier[]  all_product_supplier ; \n    uint  number_products ; \n    \n    \n\n    //_______________________________________________________\n    mapping (address => uint) balances; //to be deleted\n\n    function  Get_list() public view returns (farmer_crop[] memory){\n       return all_Farmers_crops ;\n   }\n    function  farmer_exist(address farmer_address ) public view returns (bool){\n        for (uint i=0; i<all_Farmers_crops.length; i++) {\n        if (all_Farmers_crops[uint(i)].fid == farmer_address ) {\n            return true  ;\n        }\n      \n   }\n    return false ;\n   }\n   \n    uint256 constant NULL = 0;\n\n\n\n\n   //$$$$$$$$$$$$$$$$$$$$$$$$$$$$$$$$$$$$$$$$$$$$$$$$$$$$$$$$$$$$$$$$\n   constructor() public {\n       number_crops=0 ; \n       number_lots = 0 ;\n       number_products = 0 ; \n\n\n   }\n\n   //$$$$$$$$$$$$$$$$$$$$$$$$$$$$$$$$$$$$$$$$$$$$$$$$$$$$$$$$$$$$$$$$\n   function  Getnumber_crops() public view returns (uint ){\n       return number_crops  ;\n   }\n\n   //$$$$$$$$$$$$$$$$$$$$$$$$$$$$$$$$$$$$$$$$$$$$$$$$$$$$$$$$$$$$$$$$\n    //add a new crop\n    function  Get_crop_farmer_by_key(address farmer_address) public view returns (bool exist , farmer_crop memory ){\n       for (uint i=0; i<all_Farmers_crops.length; i++) {\n        if (all_Farmers_crops[uint(i)].fid == farmer_address ) {\n            return (true , all_Farmers_crops[uint(i)] ) ;\n        }\n    }\n        return (false , all_Farmers_crops[0] );\n   }\n\n    /*\n   function  Get_crop_farmer_by_name(uint name) public view returns (string memory ){\n       for (uint i=0; i<all_Farmers_crops.length; i++) {\n        if (all_Farmers_crops[uint(i)].farmer_name == id ) {\n            return all_Farmers_crops[uint(i)]  ;\n        }\n    }\n\n    \n   }\n*/\n    function AddNewCrop(\n        address fid,\n        string memory farmer_name,\n        string memory location,\n        string memory crop_type,\n        uint   phone_number,\n        uint   quantity,\n        uint   unit_price\n        ) public {\n            //must add a condition\n\n            if ( farmer_exist(fid) == false)\n            {\n            farmer_crop memory new_farmer_crop =farmer_crop( fid,   //msg.value\n                                                                farmer_name,\n                                                                location,\n                                                                crop_type,\n                                                                phone_number,\n                                                                quantity,\n                                                                unit_price,\n                                                                unit_price * quantity ); \n\n            all_Farmers_crops.push(new_farmer_crop); \n            number_crops= number_crops + 1 ; \n            }\n    }\n\n    function AddNewLot(\n        address fid, \n        address tester_id,\n        uint    grade,\n        string  memory test_date,\n        string  memory exp_date      \n        ) public {\n            lot memory new_lot =lot( fid,\n                                     tester_id,\n                                     number_lots,\n                                     grade,\n                                     test_date,\n                                     exp_date\n                                ); \n\n            all_lots.push(new_lot); \n            number_lots+=1 ; \n    }\n\n    function  Getnumber_lots() public view returns (uint ){\n       return number_lots  ;\n   }\n\n    function AddNewSupplier(\n        address suppid,\n        uint lot_id, \n        uint selling_price     \n        ) public {\n            supplier memory new_supp =supplier( suppid,\n                                                number_products,\n                                                number_products,\n                                                selling_price\n                                ); \n\n            all_product_supplier.push(new_supp); \n            number_products+=1 ; \n    }\n\n    function  Getnumber_product() public view returns (uint ){\n       return number_products  ;\n   }\n\n\n\n\n\n\n\n\n\n\n\n\n\n\n\n\n\n   //$$$$$$$$$$$$$$$$$$$$$$$$$$$$$$$$$$$$$$$$$$$$$$$$$$$$$$$$$$$$$$$$\n    //farmer_crop[] public _farmercrop ; \n    //get crops given farmer address \n    function GetFarmerCropByAddress(address _farmerAddress ) public view returns (farmer_crop[] memory ) {\n        farmer_crop[] memory _farmercrop  ;\n        for (uint i=0; i<all_Farmers_crops.length; i++) {\n\n            if (all_Farmers_crops[i].fid == _farmerAddress ){\n                _farmercrop[i] = all_Farmers_crops[i];\n            }\n        }\n        return _farmercrop ;\n    }\n   //$$$$$$$$$$$$$$$$$$$$$$$$$$$$$$$$$$$$$$$$$$$$$$$$$$$$$$$$$$$$$$$$\n    /*\n    function fundaddr(address reciever) public{ //send investment\n        balances[reciever] = 2000;\n    }\n    */\n    function getBalance(address user_address) view public returns(uint){ //to be deleted\n        return balances[user_address];\n    }\n\n    function sendCoin(address receiver, uint amount, address sender) public returns(bool sufficient){ //to be deleted\n\n        if (balances[sender] < amount) \n        {   \n            return false;\n        }\n        balances[sender] -= amount;\n        balances[receiver] += amount;                    \n        return true;\n    }\n\n\n\n\n\n}",
  "sourcePath": "C:\\Users\\Yacine Mrabet\\Desktop\\blockchain_project\\project_30\\contracts\\FarmerProduct.sol",
  "compiler": {
    "name": "solc",
    "version": "0.5.16+commit.9c3226ce.Emscripten.clang"
  },
  "schemaVersion": "3.4.3",
  "updatedAt": "2021-12-04T18:01:11.896Z",
  "devdoc": {
    "methods": {}
  },
  "userdoc": {
    "methods": {}
  }
}