{
  "contractName": "FarmerProduct",
  "abi": [
    {
      "inputs": [],
      "payable": false,
      "stateMutability": "nonpayable",
      "type": "constructor"
    },
    {
      "constant": true,
      "inputs": [
        {
          "internalType": "uint256",
          "name": "",
          "type": "uint256"
        }
      ],
      "name": "all_Farmers_crops",
      "outputs": [
        {
          "internalType": "address",
          "name": "fid",
          "type": "address"
        },
        {
          "internalType": "string",
          "name": "farmer_name",
          "type": "string"
        },
        {
          "internalType": "string",
          "name": "location",
          "type": "string"
        },
        {
          "internalType": "string",
          "name": "crop_type",
          "type": "string"
        },
        {
          "internalType": "uint256",
          "name": "phone_number",
          "type": "uint256"
        },
        {
          "internalType": "uint256",
          "name": "quantity",
          "type": "uint256"
        },
        {
          "internalType": "uint256",
          "name": "unit_price",
          "type": "uint256"
        },
        {
          "internalType": "uint256",
          "name": "total_price",
          "type": "uint256"
        }
      ],
      "payable": false,
      "stateMutability": "view",
      "type": "function"
    },
    {
      "constant": true,
      "inputs": [],
      "name": "number_crops",
      "outputs": [
        {
          "internalType": "uint256",
          "name": "",
          "type": "uint256"
        }
      ],
      "payable": false,
      "stateMutability": "view",
      "type": "function"
    },
    {
      "constant": true,
      "inputs": [],
      "name": "Getnumber_crops",
      "outputs": [
        {
          "internalType": "uint256",
          "name": "",
          "type": "uint256"
        }
      ],
      "payable": false,
      "stateMutability": "view",
      "type": "function"
    },
    {
      "constant": true,
      "inputs": [],
      "name": "Get_list",
      "outputs": [
        {
          "components": [
            {
              "internalType": "address",
              "name": "fid",
              "type": "address"
            },
            {
              "internalType": "string",
              "name": "farmer_name",
              "type": "string"
            },
            {
              "internalType": "string",
              "name": "location",
              "type": "string"
            },
            {
              "internalType": "string",
              "name": "crop_type",
              "type": "string"
            },
            {
              "internalType": "uint256",
              "name": "phone_number",
              "type": "uint256"
            },
            {
              "internalType": "uint256",
              "name": "quantity",
              "type": "uint256"
            },
            {
              "internalType": "uint256",
              "name": "unit_price",
              "type": "uint256"
            },
            {
              "internalType": "uint256",
              "name": "total_price",
              "type": "uint256"
            }
          ],
          "internalType": "struct FarmerProduct.farmer_crop[]",
          "name": "",
          "type": "tuple[]"
        }
      ],
      "payable": false,
      "stateMutability": "view",
      "type": "function"
    },
    {
      "constant": true,
      "inputs": [
        {
          "internalType": "address",
          "name": "farmer_address",
          "type": "address"
        }
      ],
      "name": "farmer_exist",
      "outputs": [
        {
          "internalType": "bool",
          "name": "",
          "type": "bool"
        }
      ],
      "payable": false,
      "stateMutability": "view",
      "type": "function"
    },
    {
      "constant": true,
      "inputs": [
        {
          "internalType": "address",
          "name": "farmer_address",
          "type": "address"
        }
      ],
      "name": "Get_crop_farmer_by_key",
      "outputs": [
        {
          "internalType": "bool",
          "name": "exist",
          "type": "bool"
        },
        {
          "components": [
            {
              "internalType": "address",
              "name": "fid",
              "type": "address"
            },
            {
              "internalType": "string",
              "name": "farmer_name",
              "type": "string"
            },
            {
              "internalType": "string",
              "name": "location",
              "type": "string"
            },
            {
              "internalType": "string",
              "name": "crop_type",
              "type": "string"
            },
            {
              "internalType": "uint256",
              "name": "phone_number",
              "type": "uint256"
            },
            {
              "internalType": "uint256",
              "name": "quantity",
              "type": "uint256"
            },
            {
              "internalType": "uint256",
              "name": "unit_price",
              "type": "uint256"
            },
            {
              "internalType": "uint256",
              "name": "total_price",
              "type": "uint256"
            }
          ],
          "internalType": "struct FarmerProduct.farmer_crop",
          "name": "",
          "type": "tuple"
        }
      ],
      "payable": false,
      "stateMutability": "view",
      "type": "function"
    },
    {
      "constant": false,
      "inputs": [
        {
          "internalType": "address",
          "name": "fid",
          "type": "address"
        },
        {
          "internalType": "string",
          "name": "farmer_name",
          "type": "string"
        },
        {
          "internalType": "string",
          "name": "location",
          "type": "string"
        },
        {
          "internalType": "string",
          "name": "crop_type",
          "type": "string"
        },
        {
          "internalType": "uint256",
          "name": "phone_number",
          "type": "uint256"
        },
        {
          "internalType": "uint256",
          "name": "quantity",
          "type": "uint256"
        },
        {
          "internalType": "uint256",
          "name": "unit_price",
          "type": "uint256"
        }
      ],
      "name": "AddNewCrop",
      "outputs": [],
      "payable": false,
      "stateMutability": "nonpayable",
      "type": "function"
    },
    {
      "constant": false,
      "inputs": [
        {
          "internalType": "address",
          "name": "fid",
          "type": "address"
        },
        {
          "internalType": "address",
          "name": "tester_id",
          "type": "address"
        },
        {
          "internalType": "uint256",
          "name": "grade",
          "type": "uint256"
        },
        {
          "internalType": "string",
          "name": "test_date",
          "type": "string"
        },
        {
          "internalType": "string",
          "name": "exp_date",
          "type": "string"
        }
      ],
      "name": "AddNewLot",
      "outputs": [],
      "payable": false,
      "stateMutability": "nonpayable",
      "type": "function"
    },
    {
      "constant": true,
      "inputs": [],
      "name": "Getnumber_lots",
      "outputs": [
        {
          "internalType": "uint256",
          "name": "",
          "type": "uint256"
        }
      ],
      "payable": false,
      "stateMutability": "view",
      "type": "function"
    },
    {
      "constant": true,
      "inputs": [],
      "name": "Get_lots",
      "outputs": [
        {
          "components": [
            {
              "internalType": "address",
              "name": "fid",
              "type": "address"
            },
            {
              "internalType": "address",
              "name": "tester_id",
              "type": "address"
            },
            {
              "internalType": "uint256",
              "name": "lot_id",
              "type": "uint256"
            },
            {
              "internalType": "uint256",
              "name": "grade",
              "type": "uint256"
            },
            {
              "internalType": "string",
              "name": "test_date",
              "type": "string"
            },
            {
              "internalType": "string",
              "name": "exp_date",
              "type": "string"
            }
          ],
          "internalType": "struct FarmerProduct.lot[]",
          "name": "",
          "type": "tuple[]"
        }
      ],
      "payable": false,
      "stateMutability": "view",
      "type": "function"
    },
    {
      "constant": false,
      "inputs": [
        {
          "internalType": "address",
          "name": "suppid",
          "type": "address"
        },
        {
          "internalType": "uint256",
          "name": "lot_id",
          "type": "uint256"
        },
        {
          "internalType": "uint256",
          "name": "selling_price",
          "type": "uint256"
        }
      ],
      "name": "AddNewSupplier",
      "outputs": [],
      "payable": false,
      "stateMutability": "nonpayable",
      "type": "function"
    },
    {
      "constant": true,
      "inputs": [],
      "name": "Getnumber_product",
      "outputs": [
        {
          "internalType": "uint256",
          "name": "",
          "type": "uint256"
        }
      ],
      "payable": false,
      "stateMutability": "view",
      "type": "function"
    },
    {
      "constant": true,
      "inputs": [],
      "name": "Get_ForSaleProduct",
      "outputs": [
        {
          "components": [
            {
              "internalType": "address",
              "name": "suppid",
              "type": "address"
            },
            {
              "internalType": "uint256",
              "name": "lot_id",
              "type": "uint256"
            },
            {
              "internalType": "uint256",
              "name": "product_id",
              "type": "uint256"
            },
            {
              "internalType": "uint256",
              "name": "selling_price",
              "type": "uint256"
            }
          ],
          "internalType": "struct FarmerProduct.supplier[]",
          "name": "",
          "type": "tuple[]"
        }
      ],
      "payable": false,
      "stateMutability": "view",
      "type": "function"
    }
  ],
  "bytecode": "0x608060405234801561001057600080fd5b506000600181905550600060038190555060006005819055506121f0806100386000396000f3fe608060405234801561001057600080fd5b50600436106100cf5760003560e01c80635ea6c6551161008c578063cea6921e11610066578063cea6921e146101f7578063d1b4373114610215578063fb0d4a1e14610245578063fb7abed114610276576100cf565b80635ea6c655146101a1578063a9cf5c69146101bd578063c1fc6189146101d9576100cf565b80630b532fb3146100d45780630d25f57c1461010b57806313bca9e414610129578063245c0ed114610147578063257739a5146101655780632b314bf814610183575b600080fd5b6100ee60048036036100e99190810190611985565b610292565b604051610102989796959493929190611e54565b60405180910390f35b6101136104cf565b6040516101209190611ee7565b60405180910390f35b610131610793565b60405161013e9190611f98565b60405180910390f35b61014f610799565b60405161015c9190611f98565b60405180910390f35b61016d6107a3565b60405161017a9190611f2b565b60405180910390f35b61018b610876565b6040516101989190611f98565b60405180910390f35b6101bb60048036036101b69190810190611936565b610880565b005b6101d760048036036101d291908101906117a9565b610972565b005b6101e1610afd565b6040516101ee9190611f09565b60405180910390f35b6101ff610d60565b60405161020c9190611f98565b60405180910390f35b61022f600480360361022a9190810190611780565b610d6a565b60405161023c9190611f4d565b60405180910390f35b61025f600480360361025a9190810190611780565b610e13565b60405161026d929190611f68565b60405180910390f35b610290600480360361028b9190810190611850565b6113e4565b005b6000818154811061029f57fe5b90600052602060002090600802016000915090508060000160009054906101000a900473ffffffffffffffffffffffffffffffffffffffff1690806001018054600181600116156101000203166002900480601f0160208091040260200160405190810160405280929190818152602001828054600181600116156101000203166002900480156103715780601f1061034657610100808354040283529160200191610371565b820191906000526020600020905b81548152906001019060200180831161035457829003601f168201915b505050505090806002018054600181600116156101000203166002900480601f01602080910402602001604051908101604052809291908181526020018280546001816001161561010002031660029004801561040f5780601f106103e45761010080835404028352916020019161040f565b820191906000526020600020905b8154815290600101906020018083116103f257829003601f168201915b505050505090806003018054600181600116156101000203166002900480601f0160208091040260200160405190810160405280929190818152602001828054600181600116156101000203166002900480156104ad5780601f10610482576101008083540402835291602001916104ad565b820191906000526020600020905b81548152906001019060200180831161049057829003601f168201915b5050505050908060040154908060050154908060060154908060070154905088565b60606000805480602002602001604051908101604052809291908181526020016000905b8282101561078a5783829060005260206000209060080201604051806101000160405290816000820160009054906101000a900473ffffffffffffffffffffffffffffffffffffffff1673ffffffffffffffffffffffffffffffffffffffff1673ffffffffffffffffffffffffffffffffffffffff168152602001600182018054600181600116156101000203166002900480601f0160208091040260200160405190810160405280929190818152602001828054600181600116156101000203166002900480156106065780601f106105db57610100808354040283529160200191610606565b820191906000526020600020905b8154815290600101906020018083116105e957829003601f168201915b50505050508152602001600282018054600181600116156101000203166002900480601f0160208091040260200160405190810160405280929190818152602001828054600181600116156101000203166002900480156106a85780601f1061067d576101008083540402835291602001916106a8565b820191906000526020600020905b81548152906001019060200180831161068b57829003601f168201915b50505050508152602001600382018054600181600116156101000203166002900480601f01602080910402602001604051908101604052809291908181526020018280546001816001161561010002031660029004801561074a5780601f1061071f5761010080835404028352916020019161074a565b820191906000526020600020905b81548152906001019060200180831161072d57829003601f168201915b50505050508152602001600482015481526020016005820154815260200160068201548152602001600782015481525050815260200190600101906104f3565b50505050905090565b60015481565b6000600554905090565b60606004805480602002602001604051908101604052809291908181526020016000905b8282101561086d57838290600052602060002090600402016040518060800160405290816000820160009054906101000a900473ffffffffffffffffffffffffffffffffffffffff1673ffffffffffffffffffffffffffffffffffffffff1673ffffffffffffffffffffffffffffffffffffffff1681526020016001820154815260200160028201548152602001600382015481525050815260200190600101906107c7565b50505050905090565b6000600154905090565b610888611562565b60405180608001604052808573ffffffffffffffffffffffffffffffffffffffff168152602001600554815260200160055481526020018381525090506004819080600181540180825580915050906001820390600052602060002090600402016000909192909190915060008201518160000160006101000a81548173ffffffffffffffffffffffffffffffffffffffff021916908373ffffffffffffffffffffffffffffffffffffffff160217905550602082015181600101556040820151816002015560608201518160030155505050600160056000828254019250508190555050505050565b61097a6115a0565b6040518060c001604052808773ffffffffffffffffffffffffffffffffffffffff1681526020018673ffffffffffffffffffffffffffffffffffffffff16815260200160035481526020018581526020018481526020018381525090506002819080600181540180825580915050906001820390600052602060002090600602016000909192909190915060008201518160000160006101000a81548173ffffffffffffffffffffffffffffffffffffffff021916908373ffffffffffffffffffffffffffffffffffffffff16021790555060208201518160010160006101000a81548173ffffffffffffffffffffffffffffffffffffffff021916908373ffffffffffffffffffffffffffffffffffffffff16021790555060408201518160020155606082015181600301556080820151816004019080519060200190610ac3929190611602565b5060a0820151816005019080519060200190610ae0929190611602565b505050506001600360008282540192505081905550505050505050565b60606002805480602002602001604051908101604052809291908181526020016000905b82821015610d5757838290600052602060002090600602016040518060c00160405290816000820160009054906101000a900473ffffffffffffffffffffffffffffffffffffffff1673ffffffffffffffffffffffffffffffffffffffff1673ffffffffffffffffffffffffffffffffffffffff1681526020016001820160009054906101000a900473ffffffffffffffffffffffffffffffffffffffff1673ffffffffffffffffffffffffffffffffffffffff1673ffffffffffffffffffffffffffffffffffffffff1681526020016002820154815260200160038201548152602001600482018054600181600116156101000203166002900480601f016020809104026020016040519081016040528092919081815260200182805460018160011615610100020316600290048015610c9d5780601f10610c7257610100808354040283529160200191610c9d565b820191906000526020600020905b815481529060010190602001808311610c8057829003601f168201915b50505050508152602001600582018054600181600116156101000203166002900480601f016020809104026020016040519081016040528092919081815260200182805460018160011615610100020316600290048015610d3f5780601f10610d1457610100808354040283529160200191610d3f565b820191906000526020600020905b815481529060010190602001808311610d2257829003601f168201915b50505050508152505081526020019060010190610b21565b50505050905090565b6000600354905090565b600080600090505b600080549050811015610e08578273ffffffffffffffffffffffffffffffffffffffff1660008281548110610da357fe5b906000526020600020906008020160000160009054906101000a900473ffffffffffffffffffffffffffffffffffffffff1673ffffffffffffffffffffffffffffffffffffffff161415610dfb576001915050610e0e565b8080600101915050610d72565b50600090505b919050565b6000610e1d611682565b60008090505b600080549050811015611149578373ffffffffffffffffffffffffffffffffffffffff1660008281548110610e5457fe5b906000526020600020906008020160000160009054906101000a900473ffffffffffffffffffffffffffffffffffffffff1673ffffffffffffffffffffffffffffffffffffffff16141561113c57600160008281548110610eb157fe5b906000526020600020906008020180604051806101000160405290816000820160009054906101000a900473ffffffffffffffffffffffffffffffffffffffff1673ffffffffffffffffffffffffffffffffffffffff1673ffffffffffffffffffffffffffffffffffffffff168152602001600182018054600181600116156101000203166002900480601f016020809104026020016040519081016040528092919081815260200182805460018160011615610100020316600290048015610fbb5780601f10610f9057610100808354040283529160200191610fbb565b820191906000526020600020905b815481529060010190602001808311610f9e57829003601f168201915b50505050508152602001600282018054600181600116156101000203166002900480601f01602080910402602001604051908101604052809291908181526020018280546001816001161561010002031660029004801561105d5780601f106110325761010080835404028352916020019161105d565b820191906000526020600020905b81548152906001019060200180831161104057829003601f168201915b50505050508152602001600382018054600181600116156101000203166002900480601f0160208091040260200160405190810160405280929190818152602001828054600181600116156101000203166002900480156110ff5780601f106110d4576101008083540402835291602001916110ff565b820191906000526020600020905b8154815290600101906020018083116110e257829003601f168201915b50505050508152602001600482015481526020016005820154815260200160068201548152602001600782015481525050905092509250506113df565b8080600101915050610e23565b5060008060008154811061115957fe5b906000526020600020906008020180604051806101000160405290816000820160009054906101000a900473ffffffffffffffffffffffffffffffffffffffff1673ffffffffffffffffffffffffffffffffffffffff1673ffffffffffffffffffffffffffffffffffffffff168152602001600182018054600181600116156101000203166002900480601f0160208091040260200160405190810160405280929190818152602001828054600181600116156101000203166002900480156112635780601f1061123857610100808354040283529160200191611263565b820191906000526020600020905b81548152906001019060200180831161124657829003601f168201915b50505050508152602001600282018054600181600116156101000203166002900480601f0160208091040260200160405190810160405280929190818152602001828054600181600116156101000203166002900480156113055780601f106112da57610100808354040283529160200191611305565b820191906000526020600020905b8154815290600101906020018083116112e857829003601f168201915b50505050508152602001600382018054600181600116156101000203166002900480601f0160208091040260200160405190810160405280929190818152602001828054600181600116156101000203166002900480156113a75780601f1061137c576101008083540402835291602001916113a7565b820191906000526020600020905b81548152906001019060200180831161138a57829003601f168201915b505050505081526020016004820154815260200160058201548152602001600682015481526020016007820154815250509050915091505b915091565b600015156113f188610d6a565b1515141561155957611401611682565b6040518061010001604052808973ffffffffffffffffffffffffffffffffffffffff16815260200188815260200187815260200186815260200185815260200184815260200183815260200184840281525090506000819080600181540180825580915050906001820390600052602060002090600802016000909192909190915060008201518160000160006101000a81548173ffffffffffffffffffffffffffffffffffffffff021916908373ffffffffffffffffffffffffffffffffffffffff16021790555060208201518160010190805190602001906114e6929190611602565b506040820151816002019080519060200190611503929190611602565b506060820151816003019080519060200190611520929190611602565b506080820151816004015560a0820151816005015560c0820151816006015560e082015181600701555050506001805401600181905550505b50505050505050565b6040518060800160405280600073ffffffffffffffffffffffffffffffffffffffff1681526020016000815260200160008152602001600081525090565b6040518060c00160405280600073ffffffffffffffffffffffffffffffffffffffff168152602001600073ffffffffffffffffffffffffffffffffffffffff168152602001600081526020016000815260200160608152602001606081525090565b828054600181600116156101000203166002900490600052602060002090601f016020900481019282601f1061164357805160ff1916838001178555611671565b82800160010185558215611671579182015b82811115611670578251825591602001919060010190611655565b5b50905061167e91906116dd565b5090565b604051806101000160405280600073ffffffffffffffffffffffffffffffffffffffff168152602001606081526020016060815260200160608152602001600081526020016000815260200160008152602001600081525090565b6116ff91905b808211156116fb5760008160009055506001016116e3565b5090565b90565b6000813590506117118161217f565b92915050565b600082601f83011261172857600080fd5b813561173b61173682611fe0565b611fb3565b9150808252602083016020830185838301111561175757600080fd5b61176283828461212c565b50505092915050565b60008135905061177a81612196565b92915050565b60006020828403121561179257600080fd5b60006117a084828501611702565b91505092915050565b600080600080600060a086880312156117c157600080fd5b60006117cf88828901611702565b95505060206117e088828901611702565b94505060406117f18882890161176b565b935050606086013567ffffffffffffffff81111561180e57600080fd5b61181a88828901611717565b925050608086013567ffffffffffffffff81111561183757600080fd5b61184388828901611717565b9150509295509295909350565b600080600080600080600060e0888a03121561186b57600080fd5b60006118798a828b01611702565b975050602088013567ffffffffffffffff81111561189657600080fd5b6118a28a828b01611717565b965050604088013567ffffffffffffffff8111156118bf57600080fd5b6118cb8a828b01611717565b955050606088013567ffffffffffffffff8111156118e857600080fd5b6118f48a828b01611717565b94505060806119058a828b0161176b565b93505060a06119168a828b0161176b565b92505060c06119278a828b0161176b565b91505092959891949750929550565b60008060006060848603121561194b57600080fd5b600061195986828701611702565b935050602061196a8682870161176b565b925050604061197b8682870161176b565b9150509250925092565b60006020828403121561199757600080fd5b60006119a58482850161176b565b91505092915050565b60006119ba8383611c93565b905092915050565b60006119ce8383611d51565b905092915050565b60006119e28383611de1565b60808301905092915050565b6119f7816120e4565b82525050565b611a06816120e4565b82525050565b6000611a178261203c565b611a21818561208f565b935083602082028501611a338561200c565b8060005b85811015611a6f5784840389528151611a5085826119ae565b9450611a5b83612068565b925060208a01995050600181019050611a37565b50829750879550505050505092915050565b6000611a8c82612047565b611a9681856120a0565b935083602082028501611aa88561201c565b8060005b85811015611ae45784840389528151611ac585826119c2565b9450611ad083612075565b925060208a01995050600181019050611aac565b50829750879550505050505092915050565b6000611b0182612052565b611b0b81856120b1565b9350611b168361202c565b8060005b83811015611b47578151611b2e88826119d6565b9750611b3983612082565b925050600181019050611b1a565b5085935050505092915050565b611b5d816120f6565b82525050565b6000611b6e8261205d565b611b7881856120c2565b9350611b8881856020860161213b565b611b918161216e565b840191505092915050565b6000611ba78261205d565b611bb181856120d3565b9350611bc181856020860161213b565b611bca8161216e565b840191505092915050565b600061010083016000830151611bee60008601826119ee565b5060208301518482036020860152611c068282611b63565b91505060408301518482036040860152611c208282611b63565b91505060608301518482036060860152611c3a8282611b63565b9150506080830151611c4f6080860182611e36565b5060a0830151611c6260a0860182611e36565b5060c0830151611c7560c0860182611e36565b5060e0830151611c8860e0860182611e36565b508091505092915050565b600061010083016000830151611cac60008601826119ee565b5060208301518482036020860152611cc48282611b63565b91505060408301518482036040860152611cde8282611b63565b91505060608301518482036060860152611cf88282611b63565b9150506080830151611d0d6080860182611e36565b5060a0830151611d2060a0860182611e36565b5060c0830151611d3360c0860182611e36565b5060e0830151611d4660e0860182611e36565b508091505092915050565b600060c083016000830151611d6960008601826119ee565b506020830151611d7c60208601826119ee565b506040830151611d8f6040860182611e36565b506060830151611da26060860182611e36565b5060808301518482036080860152611dba8282611b63565b91505060a083015184820360a0860152611dd48282611b63565b9150508091505092915050565b608082016000820151611df760008501826119ee565b506020820151611e0a6020850182611e36565b506040820151611e1d6040850182611e36565b506060820151611e306060850182611e36565b50505050565b611e3f81612122565b82525050565b611e4e81612122565b82525050565b600061010082019050611e6a600083018b6119fd565b8181036020830152611e7c818a611b9c565b90508181036040830152611e908189611b9c565b90508181036060830152611ea48188611b9c565b9050611eb36080830187611e45565b611ec060a0830186611e45565b611ecd60c0830185611e45565b611eda60e0830184611e45565b9998505050505050505050565b60006020820190508181036000830152611f018184611a0c565b905092915050565b60006020820190508181036000830152611f238184611a81565b905092915050565b60006020820190508181036000830152611f458184611af6565b905092915050565b6000602082019050611f626000830184611b54565b92915050565b6000604082019050611f7d6000830185611b54565b8181036020830152611f8f8184611bd5565b90509392505050565b6000602082019050611fad6000830184611e45565b92915050565b6000604051905081810181811067ffffffffffffffff82111715611fd657600080fd5b8060405250919050565b600067ffffffffffffffff821115611ff757600080fd5b601f19601f8301169050602081019050919050565b6000819050602082019050919050565b6000819050602082019050919050565b6000819050602082019050919050565b600081519050919050565b600081519050919050565b600081519050919050565b600081519050919050565b6000602082019050919050565b6000602082019050919050565b6000602082019050919050565b600082825260208201905092915050565b600082825260208201905092915050565b600082825260208201905092915050565b600082825260208201905092915050565b600082825260208201905092915050565b60006120ef82612102565b9050919050565b60008115159050919050565b600073ffffffffffffffffffffffffffffffffffffffff82169050919050565b6000819050919050565b82818337600083830152505050565b60005b8381101561215957808201518184015260208101905061213e565b83811115612168576000848401525b50505050565b6000601f19601f8301169050919050565b612188816120e4565b811461219357600080fd5b50565b61219f81612122565b81146121aa57600080fd5b5056fea365627a7a7231582093bd45f7252f6da767fcf1037c9e3060a185ed5442846c44fb697caca4fa6ed96c6578706572696d656e74616cf564736f6c63430005100040",
  "source": "pragma solidity ^0.5.0;\r\npragma experimental ABIEncoderV2;\r\n\r\n//registers all the farmer contracts t track his work\r\ncontract FarmerProduct {\r\n\r\n    //______________________________________________________\r\n    //farmer crop \r\n    struct farmer_crop{ // no crop type \r\n        address fid;\r\n        string farmer_name;\r\n        string location;\r\n        string crop_type;\r\n        uint phone_number;\r\n        uint quantity;\r\n        uint unit_price;\r\n        uint total_price; // unit_price * quantity  \r\n    }\r\n\r\n    struct lot{\r\n        address fid ;\r\n        address tester_id; \r\n        uint    lot_id  ;\r\n        uint    grade;\r\n        string  test_date;\r\n        string  exp_date  ;      \r\n    }\r\n\r\n    struct supplier{\r\n        address suppid ; \r\n        uint lot_id ;\r\n        uint product_id; \r\n        uint selling_price;\r\n    }\r\n\r\n    //______________________________________________________\r\n    //list of all farmers crops\r\n    farmer_crop[] public all_Farmers_crops ; \r\n\r\n    uint public  number_crops ;\r\n\r\n    //list of all lots\r\n    lot[] all_lots ; \r\n    uint  number_lots ; \r\n\r\n    supplier[]  all_product_supplier ; \r\n    uint  number_products ; \r\n    \r\n    \r\n\r\n\r\n   //$$$$$$$$$$$$$$$$$$$$$$$$$$$$$$$$$$$$$$$$$$$$$$$$$$$$$$$$$$$$$$$$\r\n   constructor() public {\r\n       number_crops=0 ; \r\n       number_lots = 0 ;\r\n       number_products = 0 ; \r\n   }\r\n\r\n    //______________________FARMER FARMER FARMER FARMER FARMER FARMER  FARMER FARMER FARMER  ____________________________________________\r\n   //$$$$$$$$$$$$$$$$$$$$$$$$$$$$$$$$$$$$$$$$$$$$$$$$$$$$$$$$$$$$$$$$\r\n   function  Getnumber_crops() public view returns (uint ){\r\n       return number_crops  ;\r\n   }\r\n\r\n    function  Get_list() public view returns (farmer_crop[] memory){\r\n       return all_Farmers_crops ;\r\n   }\r\n    function  farmer_exist(address farmer_address ) public view returns (bool){\r\n        for (uint i=0; i<all_Farmers_crops.length; i++) {\r\n        if (all_Farmers_crops[uint(i)].fid == farmer_address ) {\r\n            return true  ;\r\n        }\r\n   }\r\n        return false ;\r\n   }\r\n   //$$$$$$$$$$$$$$$$$$$$$$$$$$$$$$$$$$$$$$$$$$$$$$$$$$$$$$$$$$$$$$$$\r\n    //add a new crop\r\n    function  Get_crop_farmer_by_key(address farmer_address) public view returns (bool exist , farmer_crop memory ){\r\n       for (uint i=0; i<all_Farmers_crops.length; i++) {\r\n        if (all_Farmers_crops[uint(i)].fid == farmer_address ) {\r\n            return (true , all_Farmers_crops[uint(i)] ) ;\r\n        }\r\n    }\r\n        return (false , all_Farmers_crops[0] );\r\n   }\r\n\r\n    function AddNewCrop(\r\n        address fid,\r\n        string memory farmer_name,\r\n        string memory location,\r\n        string memory crop_type,\r\n        uint   phone_number,\r\n        uint   quantity,\r\n        uint   unit_price\r\n        ) public {\r\n            //must add a condition\r\n\r\n            if ( farmer_exist(fid) == false)\r\n            {\r\n            farmer_crop memory new_farmer_crop =farmer_crop( fid,   //msg.value\r\n                                                                farmer_name,\r\n                                                                location,\r\n                                                                crop_type,\r\n                                                                phone_number,\r\n                                                                quantity,\r\n                                                                unit_price,\r\n                                                                unit_price * quantity ); \r\n\r\n            all_Farmers_crops.push(new_farmer_crop); \r\n            number_crops= number_crops + 1 ; \r\n            }\r\n    }\r\n\r\n\r\n\r\n\r\n\r\n\r\n\r\n    //______________________Lot Lot Lot Lot Lot Lot Lot Lot Lot Lot Lot Lot Lot Lot Lot ____________________________________________\r\n\r\n    function AddNewLot(\r\n        address fid, \r\n        address tester_id,\r\n        uint    grade,\r\n        string  memory test_date,\r\n        string  memory exp_date      \r\n        ) public {\r\n            lot memory new_lot =lot( fid,\r\n                                     tester_id,\r\n                                     number_lots,\r\n                                     grade,\r\n                                     test_date,\r\n                                     exp_date\r\n                                ); \r\n\r\n            all_lots.push(new_lot); \r\n            number_lots+=1 ; \r\n    }\r\n\r\n    function  Getnumber_lots() public view returns (uint ){\r\n       return number_lots  ;\r\n   }\r\n\r\n   function  Get_lots() public view returns (lot[] memory ){\r\n       return all_lots  ;\r\n   }\r\n\r\n\r\n\r\n    //_________________________ SUPPLIER SUPPLIER SUPPLIER SUPPLIER SUPPLIER SUPPLIER _____________________\r\n    function AddNewSupplier(\r\n        address suppid,\r\n        uint lot_id, \r\n        uint selling_price     \r\n        ) public {\r\n            supplier memory new_supp =supplier( suppid,\r\n                                                number_products,\r\n                                                number_products,\r\n                                                selling_price\r\n                                ); \r\n\r\n            all_product_supplier.push(new_supp); \r\n            number_products+=1 ; \r\n    }\r\n    function  Getnumber_product() public view returns (uint ){\r\n       return number_products  ;\r\n   }\r\n\r\n   function  Get_ForSaleProduct() public view returns (supplier[] memory ){\r\n       return all_product_supplier  ;\r\n   }\r\n\r\n\r\n\r\n\r\n\r\n \r\n\r\n\r\n\r\n\r\n}",
  "sourcePath": "C:\\Users\\SBS\\Desktop\\Projects sem5\\Blockchain\\Agro_Dapp\\contracts\\FarmerProduct.sol",
  "compiler": {
    "name": "solc",
    "version": "0.5.16+commit.9c3226ce.Emscripten.clang"
  },
  "schemaVersion": "3.4.3",
  "updatedAt": "2021-12-12T19:58:42.276Z",
  "networkType": "ethereum",
  "devdoc": {
    "methods": {}
  },
  "userdoc": {
    "methods": {}
  }
}